{
  "contractName": "People",
  "abi": [
    {
      "constant": true,
      "inputs": [
        {
          "name": "",
          "type": "uint256"
        }
      ],
      "name": "people",
      "outputs": [
        {
          "name": "firstName",
          "type": "bytes32"
        },
        {
          "name": "lastName",
          "type": "bytes32"
        },
        {
          "name": "email",
          "type": "bytes32"
        },
        {
          "name": "age",
          "type": "uint256"
        }
      ],
      "payable": false,
      "stateMutability": "view",
      "type": "function"
    },
    {
      "constant": false,
      "inputs": [
        {
          "name": "_firstName",
          "type": "bytes32"
        },
        {
          "name": "_lastName",
          "type": "bytes32"
        },
        {
          "name": "_email",
          "type": "bytes32"
        },
        {
          "name": "_age",
          "type": "uint256"
        }
      ],
      "name": "addPerson",
      "outputs": [
        {
          "name": "success",
          "type": "bool"
        }
      ],
      "payable": false,
      "stateMutability": "nonpayable",
      "type": "function"
    },
    {
      "constant": true,
      "inputs": [],
      "name": "getPeople",
      "outputs": [
        {
          "name": "",
          "type": "bytes32[]"
        },
        {
          "name": "",
          "type": "bytes32[]"
        },
        {
          "name": "",
          "type": "bytes32[]"
        },
        {
          "name": "",
          "type": "uint256[]"
        }
      ],
      "payable": false,
      "stateMutability": "view",
      "type": "function"
    }
  ],
  "bytecode": "0x608060405234801561001057600080fd5b5061060f806100206000396000f300608060405260043610610057576000357c0100000000000000000000000000000000000000000000000000000000900463ffffffff1680630f83576c1461005c5780634f995d08146100cb5780639e7a13ad1461020f575b600080fd5b34801561006857600080fd5b506100b16004803603810190808035600019169060200190929190803560001916906020019092919080356000191690602001909291908035906020019092919050505061027d565b604051808215151515815260200191505060405180910390f35b3480156100d757600080fd5b506100e0610345565b6040518080602001806020018060200180602001858103855289818151815260200191508051906020019060200280838360005b8381101561012f578082015181840152602081019050610114565b50505050905001858103845288818151815260200191508051906020019060200280838360005b83811015610171578082015181840152602081019050610156565b50505050905001858103835287818151815260200191508051906020019060200280838360005b838110156101b3578082015181840152602081019050610198565b50505050905001858103825286818151815260200191508051906020019060200280838360005b838110156101f55780820151818401526020810190506101da565b505050509050019850505050505050505060405180910390f35b34801561021b57600080fd5b5061023a60048036038101908080359060200190929190505050610572565b6040518085600019166000191681526020018460001916600019168152602001836000191660001916815260200182815260200194505050505060405180910390f35b60006102876105b1565b8581600001906000191690816000191681525050848160200190600019169081600019168152505083816040019060001916908160001916815250508281606001818152505060008190806001815401808255809150509060018203906000526020600020906004020160009091929091909150600082015181600001906000191690556020820151816001019060001916905560408201518160020190600019169055606082015181600301555050506001915050949350505050565b6060806060806000606080606080600061035d6105b1565b6000805490509650866040519080825280602002602001820160405280156103945781602001602082028038833980820191505090505b509550866040519080825280602002602001820160405280156103c65781602001602082028038833980820191505090505b509450866040519080825280602002602001820160405280156103f85781602001602082028038833980820191505090505b5093508660405190808252806020026020018201604052801561042a5781602001602082028038833980820191505090505b509250600091505b6000805490508210156105595760008281548110151561044e57fe5b9060005260206000209060040201608060405190810160405290816000820154600019166000191681526020016001820154600019166000191681526020016002820154600019166000191681526020016003820154815250509050806000015186838151811015156104bd57fe5b906020019060200201906000191690816000191681525050806020015185838151811015156104e857fe5b9060200190602002019060001916908160001916815250508060400151848381518110151561051357fe5b9060200190602002019060001916908160001916815250508060600151838381518110151561053e57fe5b90602001906020020181815250508180600101925050610432565b858585859a509a509a509a505050505050505090919293565b60008181548110151561058157fe5b90600052602060002090600402016000915090508060000154908060010154908060020154908060030154905084565b6080604051908101604052806000801916815260200160008019168152602001600080191681526020016000815250905600a165627a7a72305820f00ce2eddc44e7432efa810980ee8644e0a49b61d289444a88e47b1e329668340029",
  "source": "pragma solidity ^0.4.18;\n\ncontract People {\n\tPerson[] public people;\n\n\tstruct Person {\n\t\tbytes32 firstName;\n\t\tbytes32 lastName;\n\t\tbytes32 email;\n\t\tuint age;\n\t}\n\n\tfunction addPerson(bytes32 _firstName, bytes32 _lastName, bytes32 _email, uint _age) returns (bool success) {\n\t\tPerson memory newPerson;\n\t\tnewPerson.firstName = _firstName;\n\t\tnewPerson.lastName = _lastName;\n\t\tnewPerson.email = _email;\n\t\tnewPerson.age = _age;\n\n\t\tpeople.push(newPerson);\n\t\treturn true;\n\t}\n\n\tfunction getPeople() view returns(bytes32[], bytes32[], bytes32[], uint[]) {\n\t\tuint length = people.length;\n\t\tbytes32[] memory firstNames = new bytes32[](length);\n\t\tbytes32[] memory lastNames = new bytes32[](length);\n\t\tbytes32[] memory emails = new bytes32[](length);\n\t\tuint[] memory ages = new uint[](length);\n\n\t\tfor(uint i = 0; i < people.length; i++) {\n\t\t\tPerson memory currentPerson;\n\t\t\tcurrentPerson = people[i];\n\n\t\t\tfirstNames[i] = currentPerson.firstName;\n\t\t\tlastNames[i] = currentPerson.lastName;\n\t\t\temails[i] = currentPerson.email;\n\t\t\tages[i] = currentPerson.age;\n\t\t}\n\n\t\treturn (firstNames, lastNames, emails, ages);\n\t}\n}",
  "sourcePath": "/Users/binjie/ethereum/PeopleList/contracts/People.sol",
  "compiler": {
    "name": "solc",
    "version": "0.4.24+commit.e67f0147.Emscripten.clang"
  },
  "schemaVersion": "2.0.1",
  "updatedAt": "2018-07-22T15:23:02.034Z"
}